:100000004C696E686120003A20000D0A0043616C63
:1000100063756C61646F72612052504E20696E6925
:1000200063696164610D0A0000E00093C50007E6A2
:100030000093C40008E10093C10006E00093C200F1
:1000400008951091C00015FFFCCF0093C6000895DD
:100050000591003019F00E942100FACF08952F93E6
:100060003F934F935F936F937F9320E05AE066270F
:100070008617960721F400E30E94210018C0482F3C
:10008000792F332720E1880F991F331F3A3010F062
:100090003A5081602A95B9F7305D3F9323958617D2
:1000A000960769F70F910E9421002A95D9F77F9151
:1000B0006F915F914F913F912F9108950F921F92F1
:1000C0002F933F93222733270024869F202D312D05
:1000D000879F300D969F300D822F932F11243F91D3
:1000E0002F911F900F9008952F933F9361157105E5
:1000F00069F0222733278617970728F0861B970B6E
:100100002F5F3F4FF8CF822F932F02C08827992768
:100110003F912F9108952F933F934F935F936115D4
:10012000710519F481E0992710C0482F592F262F07
:10013000372F81E099272115310539F0642F752F6C
:100140000E945E0021503040F6CF5F914F913F9169
:100150002F9108950E941400EDE0F0E00E94280025
:10016000C6E4D1E00AE010E01A930A9309911991CC
:10017000009300011093010109911991009302016C
:1001800010930301E0E0F0E00E94280080E099274E
:100190000E942F00E7E0F0E00E942800802F912FBE
:1001A0000E942F00EAE0F0E00E9428000091000188
:1001B000109101011A930A9305E010E01A930A9333
:1001C0002991399109911991020F131F1A930A93DA
:1001D000099119910093040110930501E0E0F0E00A
:1001E0000E94280081E099270E942F00E7E0F0E0BC
:1001F0000E942800802F912F0E942F00EAE0F0E05B
:060200000E942800FFCF60
:1002060000000000000000000000000000000000E8
:1002160000000000000000000000000000000000D8
:1002260000000000000000000000000000000000C8
:1002360000000000000000000000000000000000B8
:06024600000000000000B2
:00000001FF
